{
  "contractName": "ExerciceSolution",
  "abi": [
    {
      "inputs": [
        {
          "internalType": "contract ERC20Claimable",
          "name": "value",
          "type": "address"
        },
        {
          "internalType": "contract ExerciceSolutionToken",
          "name": "value2",
          "type": "address"
        }
      ],
      "stateMutability": "nonpayable",
      "type": "constructor"
    },
    {
      "anonymous": false,
      "inputs": [
        {
          "indexed": false,
          "internalType": "address",
          "name": "caller",
          "type": "address"
        },
        {
          "indexed": false,
          "internalType": "uint256",
          "name": "amount",
          "type": "uint256"
        }
      ],
      "name": "claimed",
      "type": "event"
    },
    {
      "anonymous": false,
      "inputs": [
        {
          "indexed": false,
          "internalType": "address",
          "name": "caller",
          "type": "address"
        },
        {
          "indexed": false,
          "internalType": "uint256",
          "name": "amount",
          "type": "uint256"
        }
      ],
      "name": "depot",
      "type": "event"
    },
    {
      "anonymous": false,
      "inputs": [
        {
          "indexed": false,
          "internalType": "address",
          "name": "caller",
          "type": "address"
        },
        {
          "indexed": false,
          "internalType": "uint256",
          "name": "amount",
          "type": "uint256"
        }
      ],
      "name": "withdraw",
      "type": "event"
    },
    {
      "stateMutability": "payable",
      "type": "fallback"
    },
    {
      "inputs": [],
      "name": "ERC20claim",
      "outputs": [
        {
          "internalType": "contract ERC20Claimable",
          "name": "",
          "type": "address"
        }
      ],
      "stateMutability": "view",
      "type": "function"
    },
    {
      "inputs": [
        {
          "internalType": "address",
          "name": "",
          "type": "address"
        }
      ],
      "name": "claimedToken",
      "outputs": [
        {
          "internalType": "uint256",
          "name": "",
          "type": "uint256"
        }
      ],
      "stateMutability": "view",
      "type": "function"
    },
    {
      "inputs": [],
      "name": "soltoken",
      "outputs": [
        {
          "internalType": "contract ExerciceSolutionToken",
          "name": "",
          "type": "address"
        }
      ],
      "stateMutability": "view",
      "type": "function"
    },
    {
      "stateMutability": "payable",
      "type": "receive"
    },
    {
      "inputs": [],
      "name": "balanceOf",
      "outputs": [
        {
          "internalType": "uint256",
          "name": "",
          "type": "uint256"
        }
      ],
      "stateMutability": "view",
      "type": "function"
    },
    {
      "inputs": [],
      "name": "claimTokensOnBehalf",
      "outputs": [],
      "stateMutability": "nonpayable",
      "type": "function"
    },
    {
      "inputs": [
        {
          "internalType": "address",
          "name": "caller",
          "type": "address"
        }
      ],
      "name": "tokensInCustody",
      "outputs": [
        {
          "internalType": "uint256",
          "name": "",
          "type": "uint256"
        }
      ],
      "stateMutability": "view",
      "type": "function"
    },
    {
      "inputs": [
        {
          "internalType": "uint256",
          "name": "amountToWithdraw",
          "type": "uint256"
        }
      ],
      "name": "withdrawTokens",
      "outputs": [
        {
          "internalType": "uint256",
          "name": "",
          "type": "uint256"
        }
      ],
      "stateMutability": "nonpayable",
      "type": "function"
    },
    {
      "inputs": [
        {
          "internalType": "uint256",
          "name": "amountToDeposit",
          "type": "uint256"
        }
      ],
      "name": "depositTokens",
      "outputs": [
        {
          "internalType": "uint256",
          "name": "",
          "type": "uint256"
        }
      ],
      "stateMutability": "nonpayable",
      "type": "function"
    },
    {
      "inputs": [],
      "name": "getERC20DepositAddress",
      "outputs": [
        {
          "internalType": "address",
          "name": "",
          "type": "address"
        }
      ],
      "stateMutability": "nonpayable",
      "type": "function"
    }
  ],
  "bytecode": "0x608060405234801561001057600080fd5b50604051610ea0380380610ea08339818101604052604081101561003357600080fd5b81019080805190602001909291908051906020019092919050505081600160006101000a81548173ffffffffffffffffffffffffffffffffffffffff021916908373ffffffffffffffffffffffffffffffffffffffff16021790555080600260006101000a81548173ffffffffffffffffffffffffffffffffffffffff021916908373ffffffffffffffffffffffffffffffffffffffff1602179055505050610dbf806100e16000396000f3fe60806040526004361061008a5760003560e01c80633b542ff7116100595780633b542ff7146101b5578063606e78ef1461020c57806366e6025614610271578063722713f7146102c8578063dd49756e146102f357610091565b80630776d118146100935780630e4f7f36146100f857806319fa44cd1461010f578063315a095d1461016657610091565b3661009157005b005b34801561009f57600080fd5b506100e2600480360360208110156100b657600080fd5b81019080803573ffffffffffffffffffffffffffffffffffffffff169060200190929190505050610342565b6040518082815260200191505060405180910390f35b34801561010457600080fd5b5061010d61038a565b005b34801561011b57600080fd5b50610124610630565b604051808273ffffffffffffffffffffffffffffffffffffffff1673ffffffffffffffffffffffffffffffffffffffff16815260200191505060405180910390f35b34801561017257600080fd5b5061019f6004803603602081101561018957600080fd5b810190808035906020019092919050505061065a565b6040518082815260200191505060405180910390f35b3480156101c157600080fd5b506101ca6108d3565b604051808273ffffffffffffffffffffffffffffffffffffffff1673ffffffffffffffffffffffffffffffffffffffff16815260200191505060405180910390f35b34801561021857600080fd5b5061025b6004803603602081101561022f57600080fd5b81019080803573ffffffffffffffffffffffffffffffffffffffff1690602001909291905050506108f9565b6040518082815260200191505060405180910390f35b34801561027d57600080fd5b50610286610911565b604051808273ffffffffffffffffffffffffffffffffffffffff1673ffffffffffffffffffffffffffffffffffffffff16815260200191505060405180910390f35b3480156102d457600080fd5b506102dd610937565b6040518082815260200191505060405180910390f35b3480156102ff57600080fd5b5061032c6004803603602081101561031657600080fd5b8101908080359060200190929190505050610a18565b6040518082815260200191505060405180910390f35b60008060008373ffffffffffffffffffffffffffffffffffffffff1673ffffffffffffffffffffffffffffffffffffffff168152602001908152602001600020549050919050565b6000610394610937565b9050600160009054906101000a900473ffffffffffffffffffffffffffffffffffffffff1673ffffffffffffffffffffffffffffffffffffffff166348c54b9d6040518163ffffffff1660e01b8152600401600060405180830381600087803b15801561040057600080fd5b505af1158015610414573d6000803e3d6000fd5b505050506000600160009054906101000a900473ffffffffffffffffffffffffffffffffffffffff1673ffffffffffffffffffffffffffffffffffffffff166370a08231306040518263ffffffff1660e01b8152600401808273ffffffffffffffffffffffffffffffffffffffff1673ffffffffffffffffffffffffffffffffffffffff16815260200191505060206040518083038186803b1580156104b957600080fd5b505afa1580156104cd573d6000803e3d6000fd5b505050506040513d60208110156104e357600080fd5b81019080805190602001909291905050509050600082820390506000811015610574576040517f08c379a000000000000000000000000000000000000000000000000000000000815260040180806020018281038252600a8152602001807f4e6f206d6f6e657920210000000000000000000000000000000000000000000081525060200191505060405180910390fd5b806000803373ffffffffffffffffffffffffffffffffffffffff1673ffffffffffffffffffffffffffffffffffffffff168152602001908152602001600020600082825401925050819055507f4dd6c8de072db5939c4dc757de920d64bcbef063a41150ae51deb4f125032ddf3382604051808373ffffffffffffffffffffffffffffffffffffffff1673ffffffffffffffffffffffffffffffffffffffff1681526020018281526020019250505060405180910390a1505050565b6000600260009054906101000a900473ffffffffffffffffffffffffffffffffffffffff16905090565b6000806000803373ffffffffffffffffffffffffffffffffffffffff1673ffffffffffffffffffffffffffffffffffffffff168152602001908152602001600020549050828110156106f7576040517f08c379a0000000000000000000000000000000000000000000000000000000008152600401808060200182810382526032815260200180610d586032913960400191505060405180910390fd5b600160009054906101000a900473ffffffffffffffffffffffffffffffffffffffff1673ffffffffffffffffffffffffffffffffffffffff1663a9059cbb33856040518363ffffffff1660e01b8152600401808373ffffffffffffffffffffffffffffffffffffffff1673ffffffffffffffffffffffffffffffffffffffff16815260200182815260200192505050602060405180830381600087803b1580156107a057600080fd5b505af11580156107b4573d6000803e3d6000fd5b505050506040513d60208110156107ca57600080fd5b8101908080519060200190929190505050508281036000803373ffffffffffffffffffffffffffffffffffffffff1673ffffffffffffffffffffffffffffffffffffffff168152602001908152602001600020819055507ff3fef3a3f44f9c277339b67d54f015748bd8d6b77a985b0ab6e71126b018c34a336000803373ffffffffffffffffffffffffffffffffffffffff1673ffffffffffffffffffffffffffffffffffffffff16815260200190815260200160002054604051808373ffffffffffffffffffffffffffffffffffffffff1673ffffffffffffffffffffffffffffffffffffffff1681526020018281526020019250505060405180910390a182915050919050565b600260009054906101000a900473ffffffffffffffffffffffffffffffffffffffff1681565b60006020528060005260406000206000915090505481565b600160009054906101000a900473ffffffffffffffffffffffffffffffffffffffff1681565b6000600160009054906101000a900473ffffffffffffffffffffffffffffffffffffffff1673ffffffffffffffffffffffffffffffffffffffff166370a08231306040518263ffffffff1660e01b8152600401808273ffffffffffffffffffffffffffffffffffffffff1673ffffffffffffffffffffffffffffffffffffffff16815260200191505060206040518083038186803b1580156109d857600080fd5b505afa1580156109ec573d6000803e3d6000fd5b505050506040513d6020811015610a0257600080fd5b8101908080519060200190929190505050905090565b6000806000803373ffffffffffffffffffffffffffffffffffffffff1673ffffffffffffffffffffffffffffffffffffffff16815260200190815260200160002054905060008311610ab5576040517f08c379a0000000000000000000000000000000000000000000000000000000008152600401808060200182810382526032815260200180610d586032913960400191505060405180910390fd5b60011515600160009054906101000a900473ffffffffffffffffffffffffffffffffffffffff1673ffffffffffffffffffffffffffffffffffffffff166323b872dd3330876040518463ffffffff1660e01b8152600401808473ffffffffffffffffffffffffffffffffffffffff1673ffffffffffffffffffffffffffffffffffffffff1681526020018373ffffffffffffffffffffffffffffffffffffffff1673ffffffffffffffffffffffffffffffffffffffff1681526020018281526020019350505050602060405180830381600087803b158015610b9657600080fd5b505af1158015610baa573d6000803e3d6000fd5b505050506040513d6020811015610bc057600080fd5b8101908080519060200190929190505050151514610bdd57600080fd5b8281016000803373ffffffffffffffffffffffffffffffffffffffff1673ffffffffffffffffffffffffffffffffffffffff16815260200190815260200160002081905550600260009054906101000a900473ffffffffffffffffffffffffffffffffffffffff1673ffffffffffffffffffffffffffffffffffffffff166340c10f1933856040518363ffffffff1660e01b8152600401808373ffffffffffffffffffffffffffffffffffffffff1673ffffffffffffffffffffffffffffffffffffffff16815260200182815260200192505050600060405180830381600087803b158015610ccb57600080fd5b505af1158015610cdf573d6000803e3d6000fd5b505050507f97929230c0a30f4d7bef7e7730a0ca6f467277f7de6e8c881c8d315343e5a6e83384604051808373ffffffffffffffffffffffffffffffffffffffff1673ffffffffffffffffffffffffffffffffffffffff1681526020018281526020019250505060405180910390a18291505091905056fe4f7570732021204e6f20746f6b656e2e2e2e206f722072657175697265206d6f726520746f6b656e20706c65617365202120a2646970667358221220d9a3e6b758898b9ffaed30ff494edb1cf9544659068895690865e9bff21f9aea64736f6c63430006020033",
  "source": "pragma solidity >=0.6.0 <0.8.0;\nimport \"@openzeppelin/contracts/token/ERC20/ERC20.sol\";\n//import \"./ERC20TD.sol\";\nimport \"./ERC20Claimable.sol\";\nimport \"./ExerciceSolutionToken.sol\";\n//import \"./IERC20Mintable.sol\";\n\n//0xb5d82fee98d62cb7bc76eabad5879fa4b29ffe94 adresse token\ncontract ExerciceSolution {\n    mapping(address=>uint256) public claimedToken;\n    ERC20Claimable public ERC20claim;\n    ExerciceSolutionToken public soltoken;\n    //ERC20 public _allows;\n    \n    constructor (ERC20Claimable value, ExerciceSolutionToken value2) public {\n        ERC20claim = value;\n        soltoken=value2;\n    }\n    \n    fallback () external payable \n\t{}\n\n\treceive () external payable \n\t{}\n\n    function balanceOf() public view returns (uint256){\n        return ERC20claim.balanceOf(address(this));\n    }\n\n    event claimed(address caller, uint256 amount);\n    function claimTokensOnBehalf() public {\n        //Current Balance\n        uint256 Balance = balanceOf();\n        // claim tokens\n        ERC20claim.claimTokens();\n        // new balance\n        uint256 newBalance = ERC20claim.balanceOf(address(this));\n       \n        uint256 res = newBalance - Balance;\n        require(res>=0,\"No money !\");\n       \n        claimedToken[msg.sender]+= res;\n        \n        emit claimed(msg.sender,res);\n    } \n    \n    // Verify\n    function tokensInCustody(address caller) public view returns(uint256){\n        //uint256 claim=claimedToken[caller];\n        return claimedToken[caller];\n    }\n    \n\n    \n    \n    //0xcf9f3c82883efd288c169c231c6c6d513c5d748e adress de mon token\n    event withdraw(address caller,uint256 amount);\n    function withdrawTokens(uint256 amountToWithdraw) external returns (uint256){\n        //Verify the balance of the caller\n        //uint256 Balance = ERC20claim.balanceOf(address(this));\n        //require(Balance>0,\"No money !\");\n        \n        //Then verify the amount of the user\n        uint256 claim=claimedToken[msg.sender];\n        require(claim>=amountToWithdraw,\"Oups ! No token... or require more token please ! \");\n        \n        ERC20claim.transfer(msg.sender, amountToWithdraw);\n        claimedToken[msg.sender] = claim - amountToWithdraw;\n        //Enlever la ligne ci-dessous pour l'exo 3\n        //soltoken.burn(msg.sender,amountToWithdraw);\n        emit withdraw(msg.sender, claimedToken[msg.sender]);\n        return amountToWithdraw;\n    }\n    \n    event depot(address caller,uint256 amount);\n    function depositTokens(uint256 amountToDeposit) external returns (uint256){\n        uint256 claim=claimedToken[msg.sender];\n        require(amountToDeposit > 0,\"Oups ! No token... or require more token please ! \");\n        require(ERC20claim.transferFrom(msg.sender,address(this),amountToDeposit)==true);\n\n        claimedToken[msg.sender] = claim + amountToDeposit;\n        soltoken.mint(msg.sender,amountToDeposit);\n        emit depot(msg.sender, amountToDeposit);\n        return amountToDeposit;\n    }\n\n\tfunction getERC20DepositAddress() external returns (address) {\n        return address(soltoken);\n    }\n   \n\n}\n\n\n\n\n\n    ",
  "sourcePath": "/home/guignole/Documents/Test Blockchain/TD 1 Decentralized Finance/erc20-102/contracts/ExerciceSolution.sol",
  "compiler": {
    "name": "solc",
    "version": "0.6.2+commit.bacdbe57.Emscripten.clang"
  },
  "schemaVersion": "3.4.3",
  "updatedAt": "2022-01-20T14:47:02.943Z",
  "devdoc": {
    "methods": {}
  },
  "userdoc": {
    "methods": {}
  }
}