{
  "contractName": "ExerciceSolution",
  "abi": [
    {
      "inputs": [
        {
          "internalType": "contract ERC20Claimable",
          "name": "value",
          "type": "address"
        }
      ],
      "stateMutability": "nonpayable",
      "type": "constructor"
    },
    {
      "anonymous": false,
      "inputs": [
        {
          "indexed": true,
          "internalType": "address",
          "name": "owner",
          "type": "address"
        },
        {
          "indexed": true,
          "internalType": "address",
          "name": "spender",
          "type": "address"
        },
        {
          "indexed": false,
          "internalType": "uint256",
          "name": "value",
          "type": "uint256"
        }
      ],
      "name": "Approval",
      "type": "event"
    },
    {
      "anonymous": false,
      "inputs": [
        {
          "indexed": false,
          "internalType": "address",
          "name": "caller",
          "type": "address"
        },
        {
          "indexed": false,
          "internalType": "uint256",
          "name": "amount",
          "type": "uint256"
        }
      ],
      "name": "claimed",
      "type": "event"
    },
    {
      "anonymous": false,
      "inputs": [
        {
          "indexed": false,
          "internalType": "address",
          "name": "caller",
          "type": "address"
        },
        {
          "indexed": false,
          "internalType": "uint256",
          "name": "amount",
          "type": "uint256"
        }
      ],
      "name": "withdraw",
      "type": "event"
    },
    {
      "stateMutability": "payable",
      "type": "fallback",
      "payable": true
    },
    {
      "inputs": [],
      "name": "ERC20claim",
      "outputs": [
        {
          "internalType": "contract ERC20Claimable",
          "name": "",
          "type": "address"
        }
      ],
      "stateMutability": "view",
      "type": "function",
      "constant": true
    },
    {
      "inputs": [
        {
          "internalType": "address",
          "name": "",
          "type": "address"
        }
      ],
      "name": "claimedToken",
      "outputs": [
        {
          "internalType": "uint256",
          "name": "",
          "type": "uint256"
        }
      ],
      "stateMutability": "view",
      "type": "function",
      "constant": true
    },
    {
      "stateMutability": "payable",
      "type": "receive",
      "payable": true
    },
    {
      "inputs": [],
      "name": "balanceOf",
      "outputs": [
        {
          "internalType": "uint256",
          "name": "",
          "type": "uint256"
        }
      ],
      "stateMutability": "view",
      "type": "function",
      "constant": true
    },
    {
      "inputs": [],
      "name": "claimTokensOnBehalf",
      "outputs": [],
      "stateMutability": "nonpayable",
      "type": "function"
    },
    {
      "inputs": [
        {
          "internalType": "address",
          "name": "caller",
          "type": "address"
        }
      ],
      "name": "tokensInCustody",
      "outputs": [
        {
          "internalType": "uint256",
          "name": "",
          "type": "uint256"
        }
      ],
      "stateMutability": "view",
      "type": "function",
      "constant": true
    },
    {
      "inputs": [],
      "name": "get",
      "outputs": [
        {
          "internalType": "address",
          "name": "thisAddress",
          "type": "address"
        }
      ],
      "stateMutability": "nonpayable",
      "type": "function"
    },
    {
      "inputs": [
        {
          "internalType": "uint256",
          "name": "amountToWithdraw",
          "type": "uint256"
        }
      ],
      "name": "withdrawTokens",
      "outputs": [
        {
          "internalType": "uint256",
          "name": "",
          "type": "uint256"
        }
      ],
      "stateMutability": "nonpayable",
      "type": "function"
    },
    {
      "inputs": [
        {
          "internalType": "uint256",
          "name": "amountToWithdraw",
          "type": "uint256"
        }
      ],
      "name": "depositTokens",
      "outputs": [
        {
          "internalType": "uint256",
          "name": "",
          "type": "uint256"
        }
      ],
      "stateMutability": "nonpayable",
      "type": "function"
    },
    {
      "inputs": [],
      "name": "getERC20DepositAddress",
      "outputs": [
        {
          "internalType": "address",
          "name": "",
          "type": "address"
        }
      ],
      "stateMutability": "nonpayable",
      "type": "function"
    },
    {
      "inputs": [
        {
          "internalType": "address",
          "name": "delegate",
          "type": "address"
        },
        {
          "internalType": "uint256",
          "name": "numTokens",
          "type": "uint256"
        }
      ],
      "name": "approve",
      "outputs": [
        {
          "internalType": "bool",
          "name": "",
          "type": "bool"
        }
      ],
      "stateMutability": "nonpayable",
      "type": "function"
    }
  ],
  "bytecode": "0x608060405234801561001057600080fd5b50604051610b6a380380610b6a8339818101604052602081101561003357600080fd5b810190808051906020019092919050505080600160006101000a81548173ffffffffffffffffffffffffffffffffffffffff021916908373ffffffffffffffffffffffffffffffffffffffff16021790555050610ad5806100956000396000f3fe6080604052600436106100955760003560e01c8063606e78ef11610059578063606e78ef1461023357806366e60256146102985780636d4ce63c146102ef578063722713f714610346578063dd49756e146103715761009c565b80630776d1181461009e578063095ea7b3146101035780630e4f7f361461017657806319fa44cd1461018d578063315a095d146101e45761009c565b3661009c57005b005b3480156100aa57600080fd5b506100ed600480360360208110156100c157600080fd5b81019080803573ffffffffffffffffffffffffffffffffffffffff1690602001909291905050506103c0565b6040518082815260200191505060405180910390f35b34801561010f57600080fd5b5061015c6004803603604081101561012657600080fd5b81019080803573ffffffffffffffffffffffffffffffffffffffff16906020019092919080359060200190929190505050610408565b604051808215151515815260200191505060405180910390f35b34801561018257600080fd5b5061018b6104fa565b005b34801561019957600080fd5b506101a26107a0565b604051808273ffffffffffffffffffffffffffffffffffffffff1673ffffffffffffffffffffffffffffffffffffffff16815260200191505060405180910390f35b3480156101f057600080fd5b5061021d6004803603602081101561020757600080fd5b81019080803590602001909291905050506107a8565b6040518082815260200191505060405180910390f35b34801561023f57600080fd5b506102826004803603602081101561025657600080fd5b81019080803573ffffffffffffffffffffffffffffffffffffffff16906020019092919050505061093c565b6040518082815260200191505060405180910390f35b3480156102a457600080fd5b506102ad610954565b604051808273ffffffffffffffffffffffffffffffffffffffff1673ffffffffffffffffffffffffffffffffffffffff16815260200191505060405180910390f35b3480156102fb57600080fd5b5061030461097a565b604051808273ffffffffffffffffffffffffffffffffffffffff1673ffffffffffffffffffffffffffffffffffffffff16815260200191505060405180910390f35b34801561035257600080fd5b5061035b610982565b6040518082815260200191505060405180910390f35b34801561037d57600080fd5b506103aa6004803603602081101561039457600080fd5b8101908080359060200190929190505050610a63565b6040518082815260200191505060405180910390f35b60008060008373ffffffffffffffffffffffffffffffffffffffff1673ffffffffffffffffffffffffffffffffffffffff168152602001908152602001600020549050919050565b600081600260003373ffffffffffffffffffffffffffffffffffffffff1673ffffffffffffffffffffffffffffffffffffffff16815260200190815260200160002060008573ffffffffffffffffffffffffffffffffffffffff1673ffffffffffffffffffffffffffffffffffffffff168152602001908152602001600020819055508273ffffffffffffffffffffffffffffffffffffffff163373ffffffffffffffffffffffffffffffffffffffff167f8c5be1e5ebec7d5bd14f71427d1e84f3dd0314c0f7b2291e5b200ac8c7c3b925846040518082815260200191505060405180910390a36001905092915050565b6000610504610982565b9050600160009054906101000a900473ffffffffffffffffffffffffffffffffffffffff1673ffffffffffffffffffffffffffffffffffffffff166348c54b9d6040518163ffffffff1660e01b8152600401600060405180830381600087803b15801561057057600080fd5b505af1158015610584573d6000803e3d6000fd5b505050506000600160009054906101000a900473ffffffffffffffffffffffffffffffffffffffff1673ffffffffffffffffffffffffffffffffffffffff166370a08231306040518263ffffffff1660e01b8152600401808273ffffffffffffffffffffffffffffffffffffffff1673ffffffffffffffffffffffffffffffffffffffff16815260200191505060206040518083038186803b15801561062957600080fd5b505afa15801561063d573d6000803e3d6000fd5b505050506040513d602081101561065357600080fd5b810190808051906020019092919050505090506000828203905060008110156106e4576040517f08c379a000000000000000000000000000000000000000000000000000000000815260040180806020018281038252600a8152602001807f4e6f206d6f6e657920210000000000000000000000000000000000000000000081525060200191505060405180910390fd5b806000803373ffffffffffffffffffffffffffffffffffffffff1673ffffffffffffffffffffffffffffffffffffffff168152602001908152602001600020600082825401925050819055507f4dd6c8de072db5939c4dc757de920d64bcbef063a41150ae51deb4f125032ddf3382604051808373ffffffffffffffffffffffffffffffffffffffff1673ffffffffffffffffffffffffffffffffffffffff1681526020018281526020019250505060405180910390a1505050565b600030905090565b6000806000803373ffffffffffffffffffffffffffffffffffffffff1673ffffffffffffffffffffffffffffffffffffffff16815260200190815260200160002054905082811015610845576040517f08c379a0000000000000000000000000000000000000000000000000000000008152600401808060200182810382526032815260200180610a6e6032913960400191505060405180910390fd5b8281036000803373ffffffffffffffffffffffffffffffffffffffff1673ffffffffffffffffffffffffffffffffffffffff168152602001908152602001600020819055507ff3fef3a3f44f9c277339b67d54f015748bd8d6b77a985b0ab6e71126b018c34a336000803373ffffffffffffffffffffffffffffffffffffffff1673ffffffffffffffffffffffffffffffffffffffff16815260200190815260200160002054604051808373ffffffffffffffffffffffffffffffffffffffff1673ffffffffffffffffffffffffffffffffffffffff1681526020018281526020019250505060405180910390a182915050919050565b60006020528060005260406000206000915090505481565b600160009054906101000a900473ffffffffffffffffffffffffffffffffffffffff1681565b600030905090565b6000600160009054906101000a900473ffffffffffffffffffffffffffffffffffffffff1673ffffffffffffffffffffffffffffffffffffffff166370a08231306040518263ffffffff1660e01b8152600401808273ffffffffffffffffffffffffffffffffffffffff1673ffffffffffffffffffffffffffffffffffffffff16815260200191505060206040518083038186803b158015610a2357600080fd5b505afa158015610a37573d6000803e3d6000fd5b505050506040513d6020811015610a4d57600080fd5b8101908080519060200190929190505050905090565b600080905091905056fe4f7570732021204e6f20746f6b656e2e2e2e206f722072657175697265206d6f726520746f6b656e20706c65617365202120a264697066735822122078f67cb4206665f95abca2d416e70507b703d691b609e9d6747963e7819147d464736f6c63430006020033",
  "source": "pragma solidity >=0.6.0 <0.8.0;\nimport \"@openzeppelin/contracts/token/ERC20/ERC20.sol\";\n//import \"./ERC20TD.sol\";\nimport \"./ERC20Claimable.sol\";\n//import \"./IExerciceSolution.sol\";\n//import \"./IERC20Mintable.sol\";\n\n//0xb5d82fee98d62cb7bc76eabad5879fa4b29ffe94 adresse token\ncontract ExerciceSolution {\n    mapping(address=>uint256) public claimedToken;\n    ERC20Claimable public ERC20claim;\n    //ERC20 public _allows;\n    constructor (ERC20Claimable value) public {\n        ERC20claim = value;\n    }\n    \n    fallback () external payable \n\t{}\n\n\treceive () external payable \n\t{}\n\n    function balanceOf() public view returns (uint256){\n        return ERC20claim.balanceOf(address(this));\n    }\n\n    event claimed(address caller, uint256 amount);\n    function claimTokensOnBehalf() public {\n        //Current Balance\n        uint256 Balance = balanceOf();\n        // claim tokens\n        ERC20claim.claimTokens();\n        // new balance\n        uint256 newBalance = ERC20claim.balanceOf(address(this));\n       \n        uint256 res = newBalance - Balance;\n        require(res>=0,\"No money !\");\n       \n        claimedToken[msg.sender]+= res;\n        \n        emit claimed(msg.sender,res);\n    } \n    \n    // Verify\n    function tokensInCustody(address caller) public view returns(uint256){\n        //uint256 claim=claimedToken[caller];\n        return claimedToken[caller];\n    }\n    \n\n    function get() public returns (address thisAddress) {\n        return address(this);\n    }\n    \n    //0xcf9f3c82883efd288c169c231c6c6d513c5d748e adress de mon token\n    event withdraw(address caller,uint256 amount);\n    function withdrawTokens(uint256 amountToWithdraw) external returns (uint256){\n        //Verify the balance of the caller\n        //uint256 Balance = ERC20claim.balanceOf(address(this));\n        //require(Balance>0,\"No money !\");\n        \n        //Then verify the amount of the user\n        uint256 claim=claimedToken[msg.sender];\n        require(claim>=amountToWithdraw,\"Oups ! No token... or require more token please ! \");\n        \n        \n        claimedToken[msg.sender] = claim - amountToWithdraw;\n        emit withdraw(msg.sender, claimedToken[msg.sender]);\n        return amountToWithdraw;\n    }\n    \n\n    function depositTokens(uint256 amountToWithdraw) external returns (uint256){\n        return 0;\n    }\n\n\tfunction getERC20DepositAddress() external returns (address){\n        return address(this);\n    }\n    \n    mapping(address => mapping(address=>uint256))allowed;\n    /*\n    mapping(address => mapping(address=>uint256))allowed;\n    event alloweting(address spender,uint256 value);\n    function allowance(address owner, address delegate) public returns (uint256) {\n        emit alloweting(delegate,allowed[owner][delegate]);\n        return allowed[owner][delegate];\n    }*/\n    \n\n    event Approval(address indexed owner, address indexed spender, uint256 value);\n    function approve(address delegate, uint256 numTokens) public returns (bool) {\n        allowed[msg.sender][delegate] = numTokens;\n        emit Approval(msg.sender, delegate, numTokens);\n        return true;\n    }\n    \n    /*\n    function allowance(address owner, address spender) external view returns (uint256);\n\n    function approve(address spender, uint256 amount) external returns (bool);\n\n\n    event Approval(address indexed owner, address indexed spender, uint256 value);\n    event Approval(address indexed tokenOwner, address indexed spender, uint tokens);\n\n\n    function allowance(address owner, address delegate) public view returns (uint) {\n        return allowed[owner][delegate];\n    }\n\n    event Approval(address indexed owner, address indexed spender, uint256 value);\n    function approve(address delegate, uint256 numTokens) public returns (bool) {\n        allowed[msg.sender][delegate] = numTokens;\n        emit Approval(msg.sender, delegate, numTokens);\n        return true;\n    }\n\n  \n    */\n    \n   \n\n}\n\n\n\n\n\n    ",
  "sourcePath": "/home/guignole/Documents/Test Blockchain/TD 1 Decentralized Finance/erc20-102/contracts/ExerciceSolution.sol",
  "compiler": {
    "name": "solc",
    "version": "0.6.2+commit.bacdbe57.Emscripten.clang"
  },
  "schemaVersion": "3.4.3",
  "updatedAt": "2022-01-18T17:02:24.054Z",
  "networkType": "ethereum",
  "devdoc": {
    "methods": {}
  },
  "userdoc": {
    "methods": {}
  }
}